{
  "contractName": "Agricity",
  "abi": [
    {
      "inputs": [],
      "stateMutability": "nonpayable",
      "type": "constructor"
    },
    {
      "anonymous": false,
      "inputs": [
        {
          "indexed": false,
          "internalType": "address",
          "name": "beneficiary",
          "type": "address"
        }
      ],
      "name": "BeneficiaryRegistered",
      "type": "event"
    },
    {
      "anonymous": false,
      "inputs": [
        {
          "indexed": false,
          "internalType": "address",
          "name": "beneficiary",
          "type": "address"
        },
        {
          "indexed": false,
          "internalType": "uint256",
          "name": "amount",
          "type": "uint256"
        }
      ],
      "name": "SubsidyDisbursed",
      "type": "event"
    },
    {
      "inputs": [
        {
          "internalType": "address",
          "name": "",
          "type": "address"
        }
      ],
      "name": "eligibleBeneficiaries",
      "outputs": [
        {
          "internalType": "bool",
          "name": "",
          "type": "bool"
        }
      ],
      "stateMutability": "view",
      "type": "function",
      "constant": true
    },
    {
      "inputs": [],
      "name": "government",
      "outputs": [
        {
          "internalType": "address payable",
          "name": "",
          "type": "address"
        }
      ],
      "stateMutability": "view",
      "type": "function",
      "constant": true
    },
    {
      "inputs": [],
      "name": "registerBeneficiary",
      "outputs": [],
      "stateMutability": "nonpayable",
      "type": "function"
    },
    {
      "inputs": [
        {
          "internalType": "address",
          "name": "beneficiary",
          "type": "address"
        },
        {
          "internalType": "uint256",
          "name": "amount",
          "type": "uint256"
        }
      ],
      "name": "disburseSubsidy",
      "outputs": [],
      "stateMutability": "payable",
      "type": "function",
      "payable": true
    }
  ],
  "bytecode": "0x608060405234801561001057600080fd5b50336000806101000a81548173ffffffffffffffffffffffffffffffffffffffff021916908373ffffffffffffffffffffffffffffffffffffffff160217905550610738806100606000396000f3fe60806040526004361061003f5760003560e01c80630e45c0f2146100445780632672f5261461008157806342ca8408146100ac57806395c32445146100c8575b600080fd5b34801561005057600080fd5b5061006b60048036038101906100669190610408565b6100df565b60405161007891906105ee565b60405180910390f35b34801561008d57600080fd5b506100966100ff565b6040516100a391906105aa565b60405180910390f35b6100c660048036038101906100c19190610431565b610123565b005b3480156100d457600080fd5b506100dd6102c1565b005b60016020528060005260406000206000915054906101000a900460ff1681565b60008054906101000a900473ffffffffffffffffffffffffffffffffffffffff1681565b60008054906101000a900473ffffffffffffffffffffffffffffffffffffffff1673ffffffffffffffffffffffffffffffffffffffff163373ffffffffffffffffffffffffffffffffffffffff16146101b1576040517f08c379a00000000000000000000000000000000000000000000000000000000081526004016101a890610629565b60405180910390fd5b600160008373ffffffffffffffffffffffffffffffffffffffff1673ffffffffffffffffffffffffffffffffffffffff16815260200190815260200160002060009054906101000a900460ff1661023d576040517f08c379a000000000000000000000000000000000000000000000000000000000815260040161023490610649565b60405180910390fd5b8173ffffffffffffffffffffffffffffffffffffffff166108fc829081150290604051600060405180830381858888f19350505050158015610283573d6000803e3d6000fd5b507f66886644216fcb2fb9a2c3ab33700283ccac9dae13a7b25e6ecd31b1d60bcaba82826040516102b59291906105c5565b60405180910390a15050565b600160003373ffffffffffffffffffffffffffffffffffffffff1673ffffffffffffffffffffffffffffffffffffffff16815260200190815260200160002060009054906101000a900460ff161561034e576040517f08c379a000000000000000000000000000000000000000000000000000000000815260040161034590610609565b60405180910390fd5b60018060003373ffffffffffffffffffffffffffffffffffffffff1673ffffffffffffffffffffffffffffffffffffffff16815260200190815260200160002060006101000a81548160ff0219169083151502179055507f329ad8638175cf0ec9495317a92731a014f08f8ea5ae6446aaa77bdd21a0f83c336040516103d4919061058f565b60405180910390a1565b6000813590506103ed816106d4565b92915050565b600081359050610402816106eb565b92915050565b60006020828403121561041a57600080fd5b6000610428848285016103de565b91505092915050565b6000806040838503121561044457600080fd5b6000610452858286016103de565b9250506020610463858286016103f3565b9150509250929050565b6104768161068c565b82525050565b6104858161067a565b82525050565b6104948161069e565b82525050565b60006104a7601e83610669565b91507f42656e656669636961727920616c7265616479207265676973746572656400006000830152602082019050919050565b60006104e7602483610669565b91507f4f6e6c7920676f7665726e6d656e742063616e2064697362757273652073756260008301527f73696479000000000000000000000000000000000000000000000000000000006020830152604082019050919050565b600061054d601a83610669565b91507f42656e6566696369617279206e6f7420726567697374657265640000000000006000830152602082019050919050565b610589816106ca565b82525050565b60006020820190506105a4600083018461047c565b92915050565b60006020820190506105bf600083018461046d565b92915050565b60006040820190506105da600083018561047c565b6105e76020830184610580565b9392505050565b6000602082019050610603600083018461048b565b92915050565b600060208201905081810360008301526106228161049a565b9050919050565b60006020820190508181036000830152610642816104da565b9050919050565b6000602082019050818103600083015261066281610540565b9050919050565b600082825260208201905092915050565b6000610685826106aa565b9050919050565b6000610697826106aa565b9050919050565b60008115159050919050565b600073ffffffffffffffffffffffffffffffffffffffff82169050919050565b6000819050919050565b6106dd8161067a565b81146106e857600080fd5b50565b6106f4816106ca565b81146106ff57600080fd5b5056fea2646970667358221220246e301f68ed991524e6a30c948cac2fbd8ae9c19e10e5bc22de09f62e07fac364736f6c63430008000033",
  "immutableReferences": {},
  "source": "// contracts/Agricity.sol\npragma solidity ^0.8.0;\n\ncontract Agricity {\n    address payable public government;\n    mapping(address => bool) public eligibleBeneficiaries;\n    event BeneficiaryRegistered(address beneficiary);\n    event SubsidyDisbursed(address beneficiary, uint amount);\n\n    constructor() {\n        government = payable(msg.sender);\n    }\n\n    function registerBeneficiary() public {\n        require(!eligibleBeneficiaries[msg.sender], \"Beneficiary already registered\");\n        eligibleBeneficiaries[msg.sender] = true;\n        emit BeneficiaryRegistered(msg.sender);\n    }\n\n    function disburseSubsidy(address beneficiary, uint amount) public payable {\n        require(msg.sender == government, \"Only government can disburse subsidy\");\n        require(eligibleBeneficiaries[beneficiary], \"Beneficiary not registered\");\n        payable(beneficiary).transfer(amount);\n        emit SubsidyDisbursed(beneficiary, amount);\n    }\n}\n",
  "sourcePath": "/Users/surajsingh/Github/agricity_tomar/contracts/Agricity.sol",
  "compiler": {
    "name": "solc",
    "version": "0.8.0+commit.c7dfd78e.Emscripten.clang"
  },
  "schemaVersion": "3.4.16",
  "updatedAt": "2024-06-30T09:37:31.363Z",
  "networkType": "ethereum",
  "devdoc": {
    "kind": "dev",
    "methods": {},
    "version": 1
  },
  "userdoc": {
    "kind": "user",
    "methods": {},
    "version": 1
  }
}